{
  "_format": "hh-sol-artifact-1",
  "contractName": "NFTMarketplace",
  "sourceName": "contracts/NFTMarketplace.sol",
  "abi": [
    {
      "inputs": [],
      "stateMutability": "nonpayable",
      "type": "constructor"
    },
    {
      "anonymous": false,
      "inputs": [
        {
          "indexed": true,
          "internalType": "address",
          "name": "owner",
          "type": "address"
        },
        {
          "indexed": true,
          "internalType": "address",
          "name": "approved",
          "type": "address"
        },
        {
          "indexed": true,
          "internalType": "uint256",
          "name": "tokenId",
          "type": "uint256"
        }
      ],
      "name": "Approval",
      "type": "event"
    },
    {
      "anonymous": false,
      "inputs": [
        {
          "indexed": true,
          "internalType": "address",
          "name": "owner",
          "type": "address"
        },
        {
          "indexed": true,
          "internalType": "address",
          "name": "operator",
          "type": "address"
        },
        {
          "indexed": false,
          "internalType": "bool",
          "name": "approved",
          "type": "bool"
        }
      ],
      "name": "ApprovalForAll",
      "type": "event"
    },
    {
      "anonymous": false,
      "inputs": [
        {
          "indexed": true,
          "internalType": "uint256",
          "name": "tokenId",
          "type": "uint256"
        },
        {
          "indexed": false,
          "internalType": "address",
          "name": "seller",
          "type": "address"
        },
        {
          "indexed": false,
          "internalType": "address",
          "name": "owner",
          "type": "address"
        },
        {
          "indexed": false,
          "internalType": "uint256",
          "name": "price",
          "type": "uint256"
        },
        {
          "indexed": false,
          "internalType": "bool",
          "name": "sold",
          "type": "bool"
        }
      ],
      "name": "MarketItemCreated",
      "type": "event"
    },
    {
      "anonymous": false,
      "inputs": [
        {
          "indexed": true,
          "internalType": "address",
          "name": "from",
          "type": "address"
        },
        {
          "indexed": true,
          "internalType": "address",
          "name": "to",
          "type": "address"
        },
        {
          "indexed": true,
          "internalType": "uint256",
          "name": "tokenId",
          "type": "uint256"
        }
      ],
      "name": "Transfer",
      "type": "event"
    },
    {
      "inputs": [
        {
          "internalType": "address",
          "name": "to",
          "type": "address"
        },
        {
          "internalType": "uint256",
          "name": "tokenId",
          "type": "uint256"
        }
      ],
      "name": "approve",
      "outputs": [],
      "stateMutability": "nonpayable",
      "type": "function"
    },
    {
      "inputs": [
        {
          "internalType": "address",
          "name": "owner",
          "type": "address"
        }
      ],
      "name": "balanceOf",
      "outputs": [
        {
          "internalType": "uint256",
          "name": "",
          "type": "uint256"
        }
      ],
      "stateMutability": "view",
      "type": "function"
    },
    {
      "inputs": [
        {
          "internalType": "uint256",
          "name": "tokenId",
          "type": "uint256"
        }
      ],
      "name": "cancelItemListing",
      "outputs": [],
      "stateMutability": "nonpayable",
      "type": "function"
    },
    {
      "inputs": [
        {
          "internalType": "uint256",
          "name": "tokenId",
          "type": "uint256"
        }
      ],
      "name": "createMarketSale",
      "outputs": [],
      "stateMutability": "payable",
      "type": "function"
    },
    {
      "inputs": [
        {
          "internalType": "string",
          "name": "tokenURI",
          "type": "string"
        },
        {
          "internalType": "uint256",
          "name": "price",
          "type": "uint256"
        }
      ],
      "name": "createToken",
      "outputs": [
        {
          "internalType": "uint256",
          "name": "",
          "type": "uint256"
        }
      ],
      "stateMutability": "payable",
      "type": "function"
    },
    {
      "inputs": [],
      "name": "fetchItemsListed",
      "outputs": [
        {
          "components": [
            {
              "internalType": "uint256",
              "name": "tokenId",
              "type": "uint256"
            },
            {
              "internalType": "address payable",
              "name": "seller",
              "type": "address"
            },
            {
              "internalType": "address payable",
              "name": "owner",
              "type": "address"
            },
            {
              "internalType": "uint256",
              "name": "price",
              "type": "uint256"
            },
            {
              "internalType": "bool",
              "name": "sold",
              "type": "bool"
            }
          ],
          "internalType": "struct NFTMarketplace.MarketItem[]",
          "name": "",
          "type": "tuple[]"
        }
      ],
      "stateMutability": "view",
      "type": "function"
    },
    {
      "inputs": [],
      "name": "fetchMarketItems",
      "outputs": [
        {
          "components": [
            {
              "internalType": "uint256",
              "name": "tokenId",
              "type": "uint256"
            },
            {
              "internalType": "address payable",
              "name": "seller",
              "type": "address"
            },
            {
              "internalType": "address payable",
              "name": "owner",
              "type": "address"
            },
            {
              "internalType": "uint256",
              "name": "price",
              "type": "uint256"
            },
            {
              "internalType": "bool",
              "name": "sold",
              "type": "bool"
            }
          ],
          "internalType": "struct NFTMarketplace.MarketItem[]",
          "name": "",
          "type": "tuple[]"
        }
      ],
      "stateMutability": "view",
      "type": "function"
    },
    {
      "inputs": [],
      "name": "fetchMyNFTs",
      "outputs": [
        {
          "components": [
            {
              "internalType": "uint256",
              "name": "tokenId",
              "type": "uint256"
            },
            {
              "internalType": "address payable",
              "name": "seller",
              "type": "address"
            },
            {
              "internalType": "address payable",
              "name": "owner",
              "type": "address"
            },
            {
              "internalType": "uint256",
              "name": "price",
              "type": "uint256"
            },
            {
              "internalType": "bool",
              "name": "sold",
              "type": "bool"
            }
          ],
          "internalType": "struct NFTMarketplace.MarketItem[]",
          "name": "",
          "type": "tuple[]"
        }
      ],
      "stateMutability": "view",
      "type": "function"
    },
    {
      "inputs": [
        {
          "internalType": "uint256",
          "name": "tokenId",
          "type": "uint256"
        }
      ],
      "name": "getApproved",
      "outputs": [
        {
          "internalType": "address",
          "name": "",
          "type": "address"
        }
      ],
      "stateMutability": "view",
      "type": "function"
    },
    {
      "inputs": [],
      "name": "getListingPrice",
      "outputs": [
        {
          "internalType": "uint256",
          "name": "",
          "type": "uint256"
        }
      ],
      "stateMutability": "view",
      "type": "function"
    },
    {
      "inputs": [
        {
          "internalType": "address",
          "name": "owner",
          "type": "address"
        },
        {
          "internalType": "address",
          "name": "operator",
          "type": "address"
        }
      ],
      "name": "isApprovedForAll",
      "outputs": [
        {
          "internalType": "bool",
          "name": "",
          "type": "bool"
        }
      ],
      "stateMutability": "view",
      "type": "function"
    },
    {
      "inputs": [],
      "name": "name",
      "outputs": [
        {
          "internalType": "string",
          "name": "",
          "type": "string"
        }
      ],
      "stateMutability": "view",
      "type": "function"
    },
    {
      "inputs": [
        {
          "internalType": "uint256",
          "name": "tokenId",
          "type": "uint256"
        }
      ],
      "name": "ownerOf",
      "outputs": [
        {
          "internalType": "address",
          "name": "",
          "type": "address"
        }
      ],
      "stateMutability": "view",
      "type": "function"
    },
    {
      "inputs": [
        {
          "internalType": "uint256",
          "name": "tokenId",
          "type": "uint256"
        },
        {
          "internalType": "uint256",
          "name": "price",
          "type": "uint256"
        }
      ],
      "name": "resellToken",
      "outputs": [],
      "stateMutability": "payable",
      "type": "function"
    },
    {
      "inputs": [
        {
          "internalType": "address",
          "name": "from",
          "type": "address"
        },
        {
          "internalType": "address",
          "name": "to",
          "type": "address"
        },
        {
          "internalType": "uint256",
          "name": "tokenId",
          "type": "uint256"
        }
      ],
      "name": "safeTransferFrom",
      "outputs": [],
      "stateMutability": "nonpayable",
      "type": "function"
    },
    {
      "inputs": [
        {
          "internalType": "address",
          "name": "from",
          "type": "address"
        },
        {
          "internalType": "address",
          "name": "to",
          "type": "address"
        },
        {
          "internalType": "uint256",
          "name": "tokenId",
          "type": "uint256"
        },
        {
          "internalType": "bytes",
          "name": "data",
          "type": "bytes"
        }
      ],
      "name": "safeTransferFrom",
      "outputs": [],
      "stateMutability": "nonpayable",
      "type": "function"
    },
    {
      "inputs": [
        {
          "internalType": "address",
          "name": "operator",
          "type": "address"
        },
        {
          "internalType": "bool",
          "name": "approved",
          "type": "bool"
        }
      ],
      "name": "setApprovalForAll",
      "outputs": [],
      "stateMutability": "nonpayable",
      "type": "function"
    },
    {
      "inputs": [
        {
          "internalType": "bytes4",
          "name": "interfaceId",
          "type": "bytes4"
        }
      ],
      "name": "supportsInterface",
      "outputs": [
        {
          "internalType": "bool",
          "name": "",
          "type": "bool"
        }
      ],
      "stateMutability": "view",
      "type": "function"
    },
    {
      "inputs": [],
      "name": "symbol",
      "outputs": [
        {
          "internalType": "string",
          "name": "",
          "type": "string"
        }
      ],
      "stateMutability": "view",
      "type": "function"
    },
    {
      "inputs": [
        {
          "internalType": "uint256",
          "name": "tokenId",
          "type": "uint256"
        }
      ],
      "name": "tokenURI",
      "outputs": [
        {
          "internalType": "string",
          "name": "",
          "type": "string"
        }
      ],
      "stateMutability": "view",
      "type": "function"
    },
    {
      "inputs": [
        {
          "internalType": "address",
          "name": "from",
          "type": "address"
        },
        {
          "internalType": "address",
          "name": "to",
          "type": "address"
        },
        {
          "internalType": "uint256",
          "name": "tokenId",
          "type": "uint256"
        }
      ],
      "name": "transferFrom",
      "outputs": [],
      "stateMutability": "nonpayable",
      "type": "function"
    },
    {
      "inputs": [
        {
          "internalType": "uint256",
          "name": "_listingPrice",
          "type": "uint256"
        }
      ],
      "name": "updateListingPrice",
      "outputs": [],
      "stateMutability": "payable",
      "type": "function"
    }
  ],
  "bytecode": "0x608060405266038d7ea4c680006009553480156200001c57600080fd5b50604080518082018252601081526f4d657461766572736520546f6b656e7360801b6020808301918252835180850190945260048452631351551560e21b9084015281519192916200007191600091620000a2565b50805162000087906001906020840190620000a2565b5050600a80546001600160a01b031916331790555062000185565b828054620000b09062000148565b90600052602060002090601f016020900481019282620000d457600085556200011f565b82601f10620000ef57805160ff19168380011785556200011f565b828001600101855582156200011f579182015b828111156200011f57825182559160200191906001019062000102565b506200012d92915062000131565b5090565b5b808211156200012d576000815560010162000132565b600181811c908216806200015d57607f821691505b602082108114156200017f57634e487b7160e01b600052602260045260246000fd5b50919050565b61244c80620001956000396000f3fe6080604052600436106101355760003560e01c80636352211e116100ab578063ae677aa31161006f578063ae677aa31461033e578063b88d4fde14610351578063be9af53614610371578063c87b56dd14610384578063e219fc75146103a4578063e985e9c5146103b757600080fd5b80636352211e146102b657806370a08231146102d657806372b3b620146102f657806395d89b4114610309578063a22cb4651461031e57600080fd5b806312e85585116100fd57806312e855851461020d578063202e37401461022c57806323b872dd14610241578063260070d81461026157806342842e0e1461028157806345f8fa80146102a157600080fd5b806301ffc9a71461013a57806306fdde031461016f578063081812fc14610191578063095ea7b3146101c95780630f08efe0146101eb575b600080fd5b34801561014657600080fd5b5061015a61015536600461200d565b610400565b60405190151581526020015b60405180910390f35b34801561017b57600080fd5b50610184610452565b60405161016691906121e8565b34801561019d57600080fd5b506101b16101ac36600461209b565b6104e4565b6040516001600160a01b039091168152602001610166565b3480156101d557600080fd5b506101e96101e4366004611fe4565b61050b565b005b3480156101f757600080fd5b50610200610626565b604051610166919061216c565b34801561021957600080fd5b506009545b604051908152602001610166565b34801561023857600080fd5b506102006107da565b34801561024d57600080fd5b506101e961025c366004611ef6565b6109cc565b34801561026d57600080fd5b506101e961027c36600461209b565b6109fd565b34801561028d57600080fd5b506101e961029c366004611ef6565b610b88565b3480156102ad57600080fd5b50610200610ba3565b3480156102c257600080fd5b506101b16102d136600461209b565b610d95565b3480156102e257600080fd5b5061021e6102f1366004611eaa565b610df5565b61021e610304366004612045565b610e7b565b34801561031557600080fd5b50610184610ebd565b34801561032a57600080fd5b506101e9610339366004611faa565b610ecc565b6101e961034c36600461209b565b610edb565b34801561035d57600080fd5b506101e961036c366004611f31565b610f53565b6101e961037f36600461209b565b610f8b565b34801561039057600080fd5b5061018461039f36600461209b565b6110f0565b6101e96103b23660046120b3565b611201565b3480156103c357600080fd5b5061015a6103d2366004611ec4565b6001600160a01b03918216600090815260056020908152604080832093909416825291909152205460ff1690565b60006001600160e01b031982166380ac58cd60e01b148061043157506001600160e01b03198216635b5e139f60e01b145b8061044c57506301ffc9a760e01b6001600160e01b03198316145b92915050565b6060600080546104619061237e565b80601f016020809104026020016040519081016040528092919081815260200182805461048d9061237e565b80156104da5780601f106104af576101008083540402835291602001916104da565b820191906000526020600020905b8154815290600101906020018083116104bd57829003601f168201915b5050505050905090565b60006104ef826112f9565b506000908152600460205260409020546001600160a01b031690565b600061051682610d95565b9050806001600160a01b0316836001600160a01b031614156105895760405162461bcd60e51b815260206004820152602160248201527f4552433732313a20617070726f76616c20746f2063757272656e74206f776e656044820152603960f91b60648201526084015b60405180910390fd5b336001600160a01b03821614806105a557506105a581336103d2565b6106175760405162461bcd60e51b815260206004820152603d60248201527f4552433732313a20617070726f76652063616c6c6572206973206e6f7420746f60448201527f6b656e206f776e6572206f7220617070726f76656420666f7220616c6c0000006064820152608401610580565b6106218383611358565b505050565b6060600061063360075490565b9050600061064060085490565b60075461064d919061233b565b90506000808267ffffffffffffffff81111561067957634e487b7160e01b600052604160045260246000fd5b6040519080825280602002602001820160405280156106d257816020015b6040805160a0810182526000808252602080830182905292820181905260608201819052608082015282526000199092019101816106975790505b50905060005b848110156107d15730600b60006106f0846001612323565b81526020810191909152604001600020600201546001600160a01b031614156107bf576000610720826001612323565b6000818152600b6020908152604091829020825160a0810184528154815260018201546001600160a01b039081169382019390935260028201549092169282019290925260038201546060820152600482015460ff1615156080820152855192935090918590879081106107a457634e487b7160e01b600052603260045260246000fd5b60209081029190910101526107ba600186612323565b945050505b806107c9816123b9565b9150506106d8565b50949350505050565b606060006107e760075490565b905060008060005b8381101561084a5733600b6000610807846001612323565b81526020810191909152604001600020600201546001600160a01b0316141561083857610835600184612323565b92505b80610842816123b9565b9150506107ef565b5060008267ffffffffffffffff81111561087457634e487b7160e01b600052604160045260246000fd5b6040519080825280602002602001820160405280156108cd57816020015b6040805160a0810182526000808252602080830182905292820181905260608201819052608082015282526000199092019101816108925790505b50905060005b848110156107d15733600b60006108eb846001612323565b81526020810191909152604001600020600201546001600160a01b031614156109ba57600061091b826001612323565b6000818152600b6020908152604091829020825160a0810184528154815260018201546001600160a01b039081169382019390935260028201549092169282019290925260038201546060820152600482015460ff16151560808201528551929350909185908790811061099f57634e487b7160e01b600052603260045260246000fd5b60209081029190910101526109b5600186612323565b945050505b806109c4816123b9565b9150506108d3565b6109d633826113c6565b6109f25760405162461bcd60e51b8152600401610580906121fb565b610621838383611444565b6000818152600b60205260409020600101546001600160a01b03163314610a7a5760405162461bcd60e51b815260206004820152602b60248201527f4f6e6c79206974656d2073656c6c65722063616e20706572666f726d2074686960448201526a399037b832b930ba34b7b760a91b6064820152608401610580565b6000818152600b602052604090206004015460ff1615610aed5760405162461bcd60e51b815260206004820152602860248201527f4f6e6c792063616e63656c206974656d7320776869636820617265206e6f74206044820152671cdbdb19081e595d60c21b6064820152608401610580565b6000818152600b602052604090206002810180546001600160a01b03199081163317909155600180830180549092169091556004909101805460ff19169091179055610b3d600880546001019055565b600a546009546040516001600160a01b039092169181156108fc0291906000818181858888f19350505050158015610b79573d6000803e3d6000fd5b50610b85303383611444565b50565b61062183838360405180602001604052806000815250610f53565b60606000610bb060075490565b905060008060005b83811015610c135733600b6000610bd0846001612323565b81526020810191909152604001600020600101546001600160a01b03161415610c0157610bfe600184612323565b92505b80610c0b816123b9565b915050610bb8565b5060008267ffffffffffffffff811115610c3d57634e487b7160e01b600052604160045260246000fd5b604051908082528060200260200182016040528015610c9657816020015b6040805160a081018252600080825260208083018290529282018190526060820181905260808201528252600019909201910181610c5b5790505b50905060005b848110156107d15733600b6000610cb4846001612323565b81526020810191909152604001600020600101546001600160a01b03161415610d83576000610ce4826001612323565b6000818152600b6020908152604091829020825160a0810184528154815260018201546001600160a01b039081169382019390935260028201549092169282019290925260038201546060820152600482015460ff161515608082015285519293509091859087908110610d6857634e487b7160e01b600052603260045260246000fd5b6020908102919091010152610d7e600186612323565b945050505b80610d8d816123b9565b915050610c9c565b6000818152600260205260408120546001600160a01b03168061044c5760405162461bcd60e51b8152602060048201526018602482015277115490cdcc8c4e881a5b9d985b1a59081d1bdad95b88125160421b6044820152606401610580565b60006001600160a01b038216610e5f5760405162461bcd60e51b815260206004820152602960248201527f4552433732313a2061646472657373207a65726f206973206e6f7420612076616044820152683634b21037bbb732b960b91b6064820152608401610580565b506001600160a01b031660009081526003602052604090205490565b6000610e8b600780546001019055565b6000610e9660075490565b9050610ea233826115a8565b610eac8185611733565b610eb681846117cd565b9392505050565b6060600180546104619061237e565b610ed7338383611923565b5050565b600a546001600160a01b03163314610f4e5760405162461bcd60e51b815260206004820152603060248201527f4f6e6c79206d61726b6574706c616365206f776e65722063616e20757064617460448201526f32903634b9ba34b73390383934b1b29760811b6064820152608401610580565b600955565b610f5d33836113c6565b610f795760405162461bcd60e51b8152600401610580906121fb565b610f85848484846119f2565b50505050565b6000818152600b6020526040902060038101546001909101546001600160a01b0316348214611024576040805162461bcd60e51b81526020600482015260248101919091527f506c65617365207375626d6974207468652061736b696e67207072696365206960448201527f6e206f7264657220746f20636f6d706c657465207468652070757263686173656064820152608401610580565b6000838152600b602052604090206002810180546001600160a01b0319908116331790915560048201805460ff1916600190811790915590910180549091169055611073600880546001019055565b61107e303385611444565b600a546009546040516001600160a01b039092169181156108fc0291906000818181858888f193505050501580156110ba573d6000803e3d6000fd5b506040516001600160a01b038216903480156108fc02916000818181858888f19350505050158015610f85573d6000803e3d6000fd5b60606110fb826112f9565b600082815260066020526040812080546111149061237e565b80601f01602080910402602001604051908101604052809291908181526020018280546111409061237e565b801561118d5780601f106111625761010080835404028352916020019161118d565b820191906000526020600020905b81548152906001019060200180831161117057829003601f168201915b5050505050905060006111ab60408051602081019091526000815290565b90508051600014156111be575092915050565b8151156111f05780826040516020016111d8929190612100565b60405160208183030381529060405292505050919050565b6111f984611a25565b949350505050565b6000828152600b60205260409020600201546001600160a01b0316331461127d5760405162461bcd60e51b815260206004820152602a60248201527f4f6e6c79206974656d206f776e65722063616e20706572666f726d20746869736044820152691037b832b930ba34b7b760b11b6064820152608401610580565b600954341461129e5760405162461bcd60e51b8152600401610580906122df565b6000828152600b6020526040902060048101805460ff19169055600381018290556001810180546001600160a01b0319908116331790915560029091018054909116301790556112ee6008611a98565b610ed7333084611444565b6000818152600260205260409020546001600160a01b0316610b855760405162461bcd60e51b8152602060048201526018602482015277115490cdcc8c4e881a5b9d985b1a59081d1bdad95b88125160421b6044820152606401610580565b600081815260046020526040902080546001600160a01b0319166001600160a01b038416908117909155819061138d82610d95565b6001600160a01b03167f8c5be1e5ebec7d5bd14f71427d1e84f3dd0314c0f7b2291e5b200ac8c7c3b92560405160405180910390a45050565b6000806113d283610d95565b9050806001600160a01b0316846001600160a01b0316148061141957506001600160a01b0380821660009081526005602090815260408083209388168352929052205460ff165b806111f95750836001600160a01b0316611432846104e4565b6001600160a01b031614949350505050565b826001600160a01b031661145782610d95565b6001600160a01b03161461147d5760405162461bcd60e51b81526004016105809061229a565b6001600160a01b0382166114df5760405162461bcd60e51b8152602060048201526024808201527f4552433732313a207472616e7366657220746f20746865207a65726f206164646044820152637265737360e01b6064820152608401610580565b826001600160a01b03166114f282610d95565b6001600160a01b0316146115185760405162461bcd60e51b81526004016105809061229a565b600081815260046020908152604080832080546001600160a01b03199081169091556001600160a01b0387811680865260038552838620805460001901905590871680865283862080546001019055868652600290945282852080549092168417909155905184937fddf252ad1be2c89b69c2b068fc378daa952ba7f163c4a11628f55a4df523b3ef91a4505050565b6001600160a01b0382166115fe5760405162461bcd60e51b815260206004820181905260248201527f4552433732313a206d696e7420746f20746865207a65726f20616464726573736044820152606401610580565b6000818152600260205260409020546001600160a01b0316156116635760405162461bcd60e51b815260206004820152601c60248201527f4552433732313a20746f6b656e20616c7265616479206d696e746564000000006044820152606401610580565b6000818152600260205260409020546001600160a01b0316156116c85760405162461bcd60e51b815260206004820152601c60248201527f4552433732313a20746f6b656e20616c7265616479206d696e746564000000006044820152606401610580565b6001600160a01b038216600081815260036020908152604080832080546001019055848352600290915280822080546001600160a01b0319168417905551839291907fddf252ad1be2c89b69c2b068fc378daa952ba7f163c4a11628f55a4df523b3ef908290a45050565b6000828152600260205260409020546001600160a01b03166117ae5760405162461bcd60e51b815260206004820152602e60248201527f45524337323155524953746f726167653a2055524920736574206f66206e6f6e60448201526d32bc34b9ba32b73a103a37b5b2b760911b6064820152608401610580565b6000828152600660209081526040909120825161062192840190611d7f565b6000811161181d5760405162461bcd60e51b815260206004820152601c60248201527f5072696365206d757374206265206174206c65617374203120776569000000006044820152606401610580565b600954341461183e5760405162461bcd60e51b8152600401610580906122df565b6040805160a08101825283815233602080830182815230848601818152606086018881526000608088018181528b8252600b909652979097209551865591516001860180546001600160a01b03199081166001600160a01b0393841617909155925160028701805490941691161790915593516003840155516004909201805460ff1916921515929092179091556118d69184611444565b604080513381523060208201529081018290526000606082015282907fb640004f1d14576d0c209e240cad0410e0d8c0c33a09375861fbadae2588a98d9060800160405180910390a25050565b816001600160a01b0316836001600160a01b031614156119855760405162461bcd60e51b815260206004820152601960248201527f4552433732313a20617070726f766520746f2063616c6c6572000000000000006044820152606401610580565b6001600160a01b03838116600081815260056020908152604080832094871680845294825291829020805460ff191686151590811790915591519182527f17307eab39ab6107e8899845ad3d59bd9653f200f220920489ca2b5937696c31910160405180910390a3505050565b6119fd848484611444565b611a0984848484611aef565b610f855760405162461bcd60e51b815260040161058090612248565b6060611a30826112f9565b6000611a4760408051602081019091526000815290565b90506000815111611a675760405180602001604052806000815250610eb6565b80611a7184611bfc565b604051602001611a82929190612100565b6040516020818303038152906040529392505050565b805480611ae75760405162461bcd60e51b815260206004820152601b60248201527f436f756e7465723a2064656372656d656e74206f766572666c6f7700000000006044820152606401610580565b600019019055565b60006001600160a01b0384163b15611bf157604051630a85bd0160e11b81526001600160a01b0385169063150b7a0290611b3390339089908890889060040161212f565b602060405180830381600087803b158015611b4d57600080fd5b505af1925050508015611b7d575060408051601f3d908101601f19168201909252611b7a91810190612029565b60015b611bd7573d808015611bab576040519150601f19603f3d011682016040523d82523d6000602084013e611bb0565b606091505b508051611bcf5760405162461bcd60e51b815260040161058090612248565b805181602001fd5b6001600160e01b031916630a85bd0160e11b1490506111f9565b506001949350505050565b60606000611c0983611ca7565b600101905060008167ffffffffffffffff811115611c3757634e487b7160e01b600052604160045260246000fd5b6040519080825280601f01601f191660200182016040528015611c61576020820181803683370190505b5090508181016020015b600019016f181899199a1a9b1b9c1cb0b131b232b360811b600a86061a8153600a8504945084611c9a57611c9f565b611c6b565b509392505050565b60008072184f03e93ff9f4daa797ed6e38ed64bf6a1f0160401b8310611ce65772184f03e93ff9f4daa797ed6e38ed64bf6a1f0160401b830492506040015b6d04ee2d6d415b85acef81000000008310611d12576d04ee2d6d415b85acef8100000000830492506020015b662386f26fc100008310611d3057662386f26fc10000830492506010015b6305f5e1008310611d48576305f5e100830492506008015b6127108310611d5c57612710830492506004015b60648310611d6e576064830492506002015b600a831061044c5760010192915050565b828054611d8b9061237e565b90600052602060002090601f016020900481019282611dad5760008555611df3565b82601f10611dc657805160ff1916838001178555611df3565b82800160010185558215611df3579182015b82811115611df3578251825591602001919060010190611dd8565b50611dff929150611e03565b5090565b5b80821115611dff5760008155600101611e04565b600067ffffffffffffffff80841115611e3357611e336123ea565b604051601f8501601f19908116603f01168101908282118183101715611e5b57611e5b6123ea565b81604052809350858152868686011115611e7457600080fd5b858560208301376000602087830101525050509392505050565b80356001600160a01b0381168114611ea557600080fd5b919050565b600060208284031215611ebb578081fd5b610eb682611e8e565b60008060408385031215611ed6578081fd5b611edf83611e8e565b9150611eed60208401611e8e565b90509250929050565b600080600060608486031215611f0a578081fd5b611f1384611e8e565b9250611f2160208501611e8e565b9150604084013590509250925092565b60008060008060808587031215611f46578081fd5b611f4f85611e8e565b9350611f5d60208601611e8e565b925060408501359150606085013567ffffffffffffffff811115611f7f578182fd5b8501601f81018713611f8f578182fd5b611f9e87823560208401611e18565b91505092959194509250565b60008060408385031215611fbc578182fd5b611fc583611e8e565b915060208301358015158114611fd9578182fd5b809150509250929050565b60008060408385031215611ff6578182fd5b611fff83611e8e565b946020939093013593505050565b60006020828403121561201e578081fd5b8135610eb681612400565b60006020828403121561203a578081fd5b8151610eb681612400565b60008060408385031215612057578182fd5b823567ffffffffffffffff81111561206d578283fd5b8301601f8101851361207d578283fd5b61208c85823560208401611e18565b95602094909401359450505050565b6000602082840312156120ac578081fd5b5035919050565b600080604083850312156120c5578182fd5b50508035926020909101359150565b600081518084526120ec816020860160208601612352565b601f01601f19169290920160200192915050565b60008351612112818460208801612352565b835190830190612126818360208801612352565b01949350505050565b6001600160a01b0385811682528416602082015260408101839052608060608201819052600090612162908301846120d4565b9695505050505050565b602080825282518282018190526000919060409081850190868401855b828110156121db57815180518552868101516001600160a01b03908116888701528682015116868601526060808201519086015260809081015115159085015260a09093019290850190600101612189565b5091979650505050505050565b602081526000610eb660208301846120d4565b6020808252602d908201527f4552433732313a2063616c6c6572206973206e6f7420746f6b656e206f776e6560408201526c1c881bdc88185c1c1c9bdd9959609a1b606082015260800190565b60208082526032908201527f4552433732313a207472616e7366657220746f206e6f6e20455243373231526560408201527131b2b4bb32b91034b6b83632b6b2b73a32b960711b606082015260800190565b60208082526025908201527f4552433732313a207472616e736665722066726f6d20696e636f72726563742060408201526437bbb732b960d91b606082015260800190565b60208082526024908201527f5072696365206d75737420626520657175616c20746f206c697374696e6720706040820152637269636560e01b606082015260800190565b60008219821115612336576123366123d4565b500190565b60008282101561234d5761234d6123d4565b500390565b60005b8381101561236d578181015183820152602001612355565b83811115610f855750506000910152565b600181811c9082168061239257607f821691505b602082108114156123b357634e487b7160e01b600052602260045260246000fd5b50919050565b60006000198214156123cd576123cd6123d4565b5060010190565b634e487b7160e01b600052601160045260246000fd5b634e487b7160e01b600052604160045260246000fd5b6001600160e01b031981168114610b8557600080fdfea2646970667358221220213b3553e4107f13ec7a1a6ae66d4063d0df475ad2b4646cfa22f237147fab7364736f6c63430008040033",
  "linkReferences": {},
  "deployedLinkReferences": {}
}